:100000006F0040016F00C000000000000000000011
:10001000730020309301002117110000130181BEED
:10002000930200211303002163F8620023A0020061
:1000300093824200E3EC62FEEF0080196F00000043
:10004000000000001303000093030040B71F0000EE
:10005000938F0FC0330FA0002380EF01938F1F00F9
:1000600013031300E34873FE67800000371F00008E
:10007000130F0FC033830500B3030600330E0000D7
:10008000B30F0000938F0F02130E1E00E34C6EFEA1
:10009000B38FEF01B38F7F002380AF006780000034
:1000A000130101FC232E1102232C810213040104ED
:1000B000232CC4FC232AD4FC2328E4FC2326F4FCB0
:1000C00093070500A30FF4FC93870500230FF4FCAE
:1000D0008347F4FD13850700EFF0DFF6832744FD27
:1000E0002326F4FE6F00800C0327C4FE832744FD03
:1000F0006310F704832784FD2324F4FE6F0040027D
:100100008347E4FD032684FE832544FD1385070011
:10011000EFF0DFF5832784FE938717002324F4FE96
:10012000032784FE832704FDE3DCE7FC6F00400720
:100130000327C4FE8327C4FC6310F704832784FDD0
:100140002324F4FE6F0040028347E4FD032684FE6F
:100150008325C4FC13850700EFF05FF1832784FE3D
:10016000938717002324F4FE032784FE832704FDCE
:10017000E3DCE7FC6F00C0028347E4FD032604FDD7
:100180008325C4FC13850700EFF05FEE8347E4FD91
:10019000032684FD832544FD13850700EFF01FED42
:1001A0008327C4FE938717002326F4FE0327C4FE8B
:1001B0008327C4FCE3DAE7F2130000001300000019
:1001C0008320C1030324810313010104678000001D
:1001D000130101FF232611002324810013040101D0
:1001E0009307E0011307F001930660001306100067
:1001F0009305700B13058004EFF09FEA13000000D5
:100200008320C100032481001301010167800000E5
:00000001FF
