:100000006F0040016F00C000000000000000000011
:10001000730020309301000917110000130181BE05
:10002000930200091303000963F8620023A0020091
:1000300093824200E3EC62FEEF0000046F000000D8
:1000400000000000371F0000130F0FC033830500AE
:10005000B3030600330E0000B30F0000938F0F02AE
:10006000130E1E00E34C6EFEB38FEF01B38F7F00C3
:100070002380AF00678000000305C0089305F000EF
:0C0080001306F000EFF01FFC6FF09FF77C
:01008C00B7BC
:00000001FF
